{
  "contractName": "UnrestrictedTimeLockUpgrade",
  "abi": [
    {
      "constant": true,
      "inputs": [
        {
          "name": "",
          "type": "bytes32"
        }
      ],
      "name": "timeLockedUpgrades",
      "outputs": [
        {
          "name": "",
          "type": "uint256"
        }
      ],
      "payable": false,
      "stateMutability": "view",
      "type": "function"
    },
    {
      "constant": false,
      "inputs": [],
      "name": "renounceOwnership",
      "outputs": [],
      "payable": false,
      "stateMutability": "nonpayable",
      "type": "function"
    },
    {
      "constant": true,
      "inputs": [],
      "name": "timeLockPeriod",
      "outputs": [
        {
          "name": "",
          "type": "uint256"
        }
      ],
      "payable": false,
      "stateMutability": "view",
      "type": "function"
    },
    {
      "constant": true,
      "inputs": [],
      "name": "owner",
      "outputs": [
        {
          "name": "",
          "type": "address"
        }
      ],
      "payable": false,
      "stateMutability": "view",
      "type": "function"
    },
    {
      "constant": true,
      "inputs": [],
      "name": "isOwner",
      "outputs": [
        {
          "name": "",
          "type": "bool"
        }
      ],
      "payable": false,
      "stateMutability": "view",
      "type": "function"
    },
    {
      "constant": false,
      "inputs": [
        {
          "name": "_timeLockPeriod",
          "type": "uint256"
        }
      ],
      "name": "setTimeLockPeriod",
      "outputs": [],
      "payable": false,
      "stateMutability": "nonpayable",
      "type": "function"
    },
    {
      "constant": false,
      "inputs": [
        {
          "name": "newOwner",
          "type": "address"
        }
      ],
      "name": "transferOwnership",
      "outputs": [],
      "payable": false,
      "stateMutability": "nonpayable",
      "type": "function"
    },
    {
      "anonymous": false,
      "inputs": [
        {
          "indexed": true,
          "name": "_upgradeHash",
          "type": "bytes32"
        }
      ],
      "name": "RemoveRegisteredUpgrade",
      "type": "event"
    },
    {
      "anonymous": false,
      "inputs": [
        {
          "indexed": false,
          "name": "_upgradeHash",
          "type": "bytes32"
        },
        {
          "indexed": false,
          "name": "_timestamp",
          "type": "uint256"
        }
      ],
      "name": "UpgradeRegistered",
      "type": "event"
    },
    {
      "anonymous": false,
      "inputs": [
        {
          "indexed": true,
          "name": "previousOwner",
          "type": "address"
        },
        {
          "indexed": true,
          "name": "newOwner",
          "type": "address"
        }
      ],
      "name": "OwnershipTransferred",
      "type": "event"
    }
  ],
  "bytecode": "0x6080604081905260008054600160a060020a0319163317808255600160a060020a0316917f8be0079c531659141344cd1fd0a4f28419497f9722a3daafe3b4186f6b6457e0908290a3610370806100576000396000f3fe608060405234801561001057600080fd5b506004361061009a576000357c0100000000000000000000000000000000000000000000000000000000900480638da5cb5b116100785780638da5cb5b146100e05780638f32d59b146101045780639303b16f14610120578063f2fde38b1461013d5761009a565b80631766486d1461009f578063715018a6146100ce57806378446bc1146100d8575b600080fd5b6100bc600480360360208110156100b557600080fd5b5035610163565b60408051918252519081900360200190f35b6100d6610175565b005b6100bc6101dd565b6100e86101e3565b60408051600160a060020a039092168252519081900360200190f35b61010c6101f2565b604080519115158252519081900360200190f35b6100d66004803603602081101561013657600080fd5b5035610203565b6100d66004803603602081101561015357600080fd5b5035600160a060020a0316610273565b60026020526000908152604090205481565b61017d6101f2565b61018657600080fd5b60008054604051600160a060020a03909116907f8be0079c531659141344cd1fd0a4f28419497f9722a3daafe3b4186f6b6457e0908390a36000805473ffffffffffffffffffffffffffffffffffffffff19169055565b60015481565b600054600160a060020a031690565b600054600160a060020a0316331490565b61020b6101f2565b61021457600080fd5b600154811161026e576040517f08c379a000000000000000000000000000000000000000000000000000000000815260040180806020018281038252603981526020018061030c6039913960400191505060405180910390fd5b600155565b61027b6101f2565b61028457600080fd5b61028d81610290565b50565b600160a060020a0381166102a357600080fd5b60008054604051600160a060020a03808516939216917f8be0079c531659141344cd1fd0a4f28419497f9722a3daafe3b4186f6b6457e091a36000805473ffffffffffffffffffffffffffffffffffffffff1916600160a060020a039290921691909117905556fe54696d654c6f636b557067726164653a204e657720706572696f64206d7573742062652067726561746572207468616e206578697374696e67a165627a7a72305820a00d4359abe9f09890ac5bc4bee6d2b68deaf69002b86b40ce4d11203bc16c190029",
  "source": "/*\n    Copyright 2020 Set Labs Inc.\n\n    Licensed under the Apache License, Version 2.0 (the \"License\");\n    you may not use this file except in compliance with the License.\n    You may obtain a copy of the License at\n\n    http://www.apache.org/licenses/LICENSE-2.0\n\n    Unless required by applicable law or agreed to in writing, software\n    distributed under the License is distributed on an \"AS IS\" BASIS,\n    WITHOUT WARRANTIES OR CONDITIONS OF ANY KIND, either express or implied.\n    See the License for the specific language governing permissions and\n    limitations under the License.\n*/\n\npragma solidity 0.5.7;\n\nimport { SafeMath } from \"openzeppelin-solidity/contracts/math/SafeMath.sol\";\n\nimport { TimeLockUpgrade } from \"./TimeLockUpgrade.sol\";\n\n\n/**\n * @title UnrestrictedTimeLockUpgrade\n * @author Set Protocol\n *\n * The UnrestrictedTimeLockUpgrade contract inherits a modifier for handling minimum time period updates not\n * limited to the owner of the contract. Also implements a removeTimeLockUpgrade internal function that can\n * be exposed by writing an external version into the contract it used in with the required modifiers to\n * restrict access.\n */\n\ncontract UnrestrictedTimeLockUpgrade is\n    TimeLockUpgrade\n{\n    /* ============ Events ============ */\n\n    event RemoveRegisteredUpgrade(\n        bytes32 indexed _upgradeHash\n    );\n\n    /* ============ Internal Function ============ */\n\n    /**\n     * Removes an existing upgrade.\n     *\n     * @param  _upgradeHash    Keccack256 hash that uniquely identifies function called and arguments\n     */\n    function removeRegisteredUpgradeInternal(\n        bytes32 _upgradeHash\n    )\n        internal\n    {\n        require(\n            timeLockedUpgrades[_upgradeHash] != 0,\n            \"TimeLockUpgradeV2.removeRegisteredUpgrade: Upgrade hash must be registered\"\n        );\n\n        // Reset the timestamp to 0\n        timeLockedUpgrades[_upgradeHash] = 0;\n\n        emit RemoveRegisteredUpgrade(\n            _upgradeHash\n        );\n    }\n}",
  "sourcePath": "/Users/brianweickmann/Documents/Source/set-protocol-contract-utils/contracts/lib/UnrestrictedTimeLockUpgrade.sol",
  "compiler": {
    "name": "solc",
    "version": "0.5.7+commit.6da8b019.Linux.g++"
  },
  "schemaVersion": "3.0.23",
  "updatedAt": "2020-04-15T22:23:26.918Z",
  "devdoc": {
    "author": "Set Protocol * The UnrestrictedTimeLockUpgrade contract inherits a modifier for handling minimum time period updates not limited to the owner of the contract. Also implements a removeTimeLockUpgrade internal function that can be exposed by writing an external version into the contract it used in with the required modifiers to restrict access.",
    "methods": {
      "isOwner()": {
        "return": "true if `msg.sender` is the owner of the contract."
      },
      "owner()": {
        "return": "the address of the owner."
      },
      "renounceOwnership()": {
        "details": "Allows the current owner to relinquish control of the contract. It will not be possible to call the functions with the `onlyOwner` modifier anymore."
      },
      "setTimeLockPeriod(uint256)": {
        "params": {
          "_timeLockPeriod": "Time in seconds that upgrades need to be evaluated before execution"
        }
      },
      "transferOwnership(address)": {
        "details": "Allows the current owner to transfer control of the contract to a newOwner.",
        "params": {
          "newOwner": "The address to transfer ownership to."
        }
      }
    },
    "title": "UnrestrictedTimeLockUpgrade"
  },
  "userdoc": {
    "methods": {
      "renounceOwnership()": {
        "notice": "Renouncing ownership will leave the contract without an owner, thereby removing any functionality that is only available to the owner."
      },
      "setTimeLockPeriod(uint256)": {
        "notice": "Change timeLockPeriod period. Generally called after initially settings have been set up."
      }
    }
  }
}