{
  "contractName": "WhiteList",
  "abi": [
    {
      "constant": true,
      "inputs": [
        {
          "name": "",
          "type": "bytes32"
        }
      ],
      "name": "timeLockedUpgrades",
      "outputs": [
        {
          "name": "",
          "type": "uint256"
        }
      ],
      "payable": false,
      "stateMutability": "view",
      "type": "function"
    },
    {
      "constant": true,
      "inputs": [
        {
          "name": "",
          "type": "address"
        }
      ],
      "name": "whiteList",
      "outputs": [
        {
          "name": "",
          "type": "bool"
        }
      ],
      "payable": false,
      "stateMutability": "view",
      "type": "function"
    },
    {
      "constant": false,
      "inputs": [],
      "name": "renounceOwnership",
      "outputs": [],
      "payable": false,
      "stateMutability": "nonpayable",
      "type": "function"
    },
    {
      "constant": true,
      "inputs": [],
      "name": "timeLockPeriod",
      "outputs": [
        {
          "name": "",
          "type": "uint256"
        }
      ],
      "payable": false,
      "stateMutability": "view",
      "type": "function"
    },
    {
      "constant": true,
      "inputs": [],
      "name": "owner",
      "outputs": [
        {
          "name": "",
          "type": "address"
        }
      ],
      "payable": false,
      "stateMutability": "view",
      "type": "function"
    },
    {
      "constant": true,
      "inputs": [],
      "name": "isOwner",
      "outputs": [
        {
          "name": "",
          "type": "bool"
        }
      ],
      "payable": false,
      "stateMutability": "view",
      "type": "function"
    },
    {
      "constant": false,
      "inputs": [
        {
          "name": "_timeLockPeriod",
          "type": "uint256"
        }
      ],
      "name": "setTimeLockPeriod",
      "outputs": [],
      "payable": false,
      "stateMutability": "nonpayable",
      "type": "function"
    },
    {
      "constant": true,
      "inputs": [
        {
          "name": "",
          "type": "uint256"
        }
      ],
      "name": "addresses",
      "outputs": [
        {
          "name": "",
          "type": "address"
        }
      ],
      "payable": false,
      "stateMutability": "view",
      "type": "function"
    },
    {
      "constant": false,
      "inputs": [
        {
          "name": "newOwner",
          "type": "address"
        }
      ],
      "name": "transferOwnership",
      "outputs": [],
      "payable": false,
      "stateMutability": "nonpayable",
      "type": "function"
    },
    {
      "inputs": [
        {
          "name": "_initialAddresses",
          "type": "address[]"
        }
      ],
      "payable": false,
      "stateMutability": "nonpayable",
      "type": "constructor"
    },
    {
      "anonymous": false,
      "inputs": [
        {
          "indexed": false,
          "name": "_address",
          "type": "address"
        }
      ],
      "name": "AddressAdded",
      "type": "event"
    },
    {
      "anonymous": false,
      "inputs": [
        {
          "indexed": false,
          "name": "_address",
          "type": "address"
        }
      ],
      "name": "AddressRemoved",
      "type": "event"
    },
    {
      "anonymous": false,
      "inputs": [
        {
          "indexed": false,
          "name": "_upgradeHash",
          "type": "bytes32"
        },
        {
          "indexed": false,
          "name": "_timestamp",
          "type": "uint256"
        }
      ],
      "name": "UpgradeRegistered",
      "type": "event"
    },
    {
      "anonymous": false,
      "inputs": [
        {
          "indexed": true,
          "name": "previousOwner",
          "type": "address"
        },
        {
          "indexed": true,
          "name": "newOwner",
          "type": "address"
        }
      ],
      "name": "OwnershipTransferred",
      "type": "event"
    },
    {
      "constant": false,
      "inputs": [
        {
          "name": "_address",
          "type": "address"
        }
      ],
      "name": "addAddress",
      "outputs": [],
      "payable": false,
      "stateMutability": "nonpayable",
      "type": "function"
    },
    {
      "constant": false,
      "inputs": [
        {
          "name": "_address",
          "type": "address"
        }
      ],
      "name": "removeAddress",
      "outputs": [],
      "payable": false,
      "stateMutability": "nonpayable",
      "type": "function"
    },
    {
      "constant": true,
      "inputs": [],
      "name": "validAddresses",
      "outputs": [
        {
          "name": "",
          "type": "address[]"
        }
      ],
      "payable": false,
      "stateMutability": "view",
      "type": "function"
    },
    {
      "constant": true,
      "inputs": [
        {
          "name": "_addresses",
          "type": "address[]"
        }
      ],
      "name": "areValidAddresses",
      "outputs": [
        {
          "name": "",
          "type": "bool"
        }
      ],
      "payable": false,
      "stateMutability": "view",
      "type": "function"
    }
  ],
  "bytecode": "0x608060405234801561001057600080fd5b50604051610ed5380380610ed58339810180604052602081101561003357600080fd5b81019080805164010000000081111561004b57600080fd5b8201602081018481111561005e57600080fd5b815185602082028301116401000000008211171561007b57600080fd5b505060008054600160a060020a0319163317808255604051929550600160a060020a0316935091507f8be0079c531659141344cd1fd0a4f28419497f9722a3daafe3b4186f6b6457e0908290a360005b815181101561015b5760008282815181106100e257fe5b6020908102919091018101516003805460018082019092557fc2575a0e9e593c00f959f8c92f12db2869c3395a3b0502d05e2516446f71f85b018054600160a060020a031916600160a060020a0390931692831790556000918252600490925260409020805460ff1916821790559190910190506100cb565b5050610d698061016c6000396000f3fe608060405234801561001057600080fd5b50600436106100ec576000357c01000000000000000000000000000000000000000000000000000000009004806378446bc1116100a95780639303b16f116100835780639303b16f14610254578063e7d22fdb14610271578063edf26d9b146102c9578063f2fde38b146102e6576100ec565b806378446bc1146102205780638da5cb5b146102285780638f32d59b1461024c576100ec565b80631766486d146100f157806332ed010e14610120578063372c12b1146101a457806338eada1c146101ca5780634ba79dfe146101f2578063715018a614610218575b600080fd5b61010e6004803603602081101561010757600080fd5b503561030c565b60408051918252519081900360200190f35b6101906004803603602081101561013657600080fd5b81019060208101813564010000000081111561015157600080fd5b82018360208201111561016357600080fd5b8035906020019184602083028401116401000000008311171561018557600080fd5b50909250905061031e565b604080519115158252519081900360200190f35b610190600480360360208110156101ba57600080fd5b5035600160a060020a0316610382565b6101f0600480360360208110156101e057600080fd5b5035600160a060020a0316610397565b005b6101f06004803603602081101561020857600080fd5b5035600160a060020a03166106bf565b6101f0610804565b61010e61086c565b610230610872565b60408051600160a060020a039092168252519081900360200190f35b610190610882565b6101f06004803603602081101561026a57600080fd5b5035610893565b6102796108ec565b60408051602080825283518183015283519192839290830191858101910280838360005b838110156102b557818101518382015260200161029d565b505050509050019250505060405180910390f35b610230600480360360208110156102df57600080fd5b503561094e565b6101f0600480360360208110156102fc57600080fd5b5035600160a060020a0316610975565b60026020526000908152604090205481565b6000805b82811015610376576004600085858481811061033a57fe5b60209081029290920135600160a060020a03168352508101919091526040016000205460ff1661036e57600091505061037c565b600101610322565b50600190505b92915050565b60046020526000908152604090205460ff1681565b61039f610882565b6103a857600080fd5b6001546104b557600160a060020a03811660009081526004602052604090205460ff161561040a5760405160e560020a62461bcd02815260040180806020018281038252603b815260200180610d03603b913960400191505060405180910390fd5b6003805460018082019092557fc2575a0e9e593c00f959f8c92f12db2869c3395a3b0502d05e2516446f71f85b01805473ffffffffffffffffffffffffffffffffffffffff1916600160a060020a038416908117909155600081815260046020908152604091829020805460ff19169094179093558051918252517fa226db3f664042183ee0281230bba26cbf7b5057e50aee7f25a175ff45ce4d7f929181900390910190a16106bc565b60008036604051602001808383808284376040805191909301818103601f190182528352805160209182012060008181526002909252929020549195509093505050811515905061055457600082815260026020908152604091829020429081905582518581529182015281517f0e0905d1a972d476e353bdcc3e06b19a71709054c8ba01eccb7e0691eca6d374929181900390910190a150506106bc565b60015461056890829063ffffffff61098f16565b4210156105a95760405160e560020a62461bcd028152600401808060200182810382526034815260200180610c966034913960400191505060405180910390fd5b6000828152600260209081526040808320839055600160a060020a0386168352600490915290205460ff16156106135760405160e560020a62461bcd02815260040180806020018281038252603b815260200180610d03603b913960400191505060405180910390fd5b6003805460018082019092557fc2575a0e9e593c00f959f8c92f12db2869c3395a3b0502d05e2516446f71f85b01805473ffffffffffffffffffffffffffffffffffffffff1916600160a060020a038616908117909155600081815260046020908152604091829020805460ff19169094179093558051918252517fa226db3f664042183ee0281230bba26cbf7b5057e50aee7f25a175ff45ce4d7f929181900390910190a150505b50565b6106c7610882565b6106d057600080fd5b600160a060020a03811660009081526004602052604090205460ff1661072a5760405160e560020a62461bcd02815260040180806020018281038252603c815260200180610c5a603c913960400191505060405180910390fd5b61079781600380548060200260200160405190810160405280929190818152602001828054801561078457602002820191906000526020600020905b8154600160a060020a03168152600190910190602001808311610766575b50505050506109a890919063ffffffff16565b80516107ab91600391602090910190610bb6565b50600160a060020a038116600081815260046020908152604091829020805460ff19169055815192835290517f24a12366c02e13fe4a9e03d86a8952e85bb74a456c16e4a18b6d8295700b74bb9281900390910190a150565b61080c610882565b61081557600080fd5b60008054604051600160a060020a03909116907f8be0079c531659141344cd1fd0a4f28419497f9722a3daafe3b4186f6b6457e0908390a36000805473ffffffffffffffffffffffffffffffffffffffff19169055565b60015481565b600054600160a060020a03165b90565b600054600160a060020a0316331490565b61089b610882565b6108a457600080fd5b60015481116108e75760405160e560020a62461bcd028152600401808060200182810382526039815260200180610cca6039913960400191505060405180910390fd5b600155565b6060600380548060200260200160405190810160405280929190818152602001828054801561094457602002820191906000526020600020905b8154600160a060020a03168152600190910190602001808311610926575b5050505050905090565b6003818154811061095b57fe5b600091825260209091200154600160a060020a0316905081565b61097d610882565b61098657600080fd5b6106bc816109dd565b6000828201838110156109a157600080fd5b9392505050565b60606000806109b78585610a58565b91509150806109c557600080fd5b60606109d18684610abc565b50935061037c92505050565b600160a060020a0381166109f057600080fd5b60008054604051600160a060020a03808516939216917f8be0079c531659141344cd1fd0a4f28419497f9722a3daafe3b4186f6b6457e091a36000805473ffffffffffffffffffffffffffffffffffffffff1916600160a060020a0392909216919091179055565b81516000908190815b81811015610aab5784600160a060020a0316868281518110610a7f57fe5b6020026020010151600160a060020a03161415610aa357925060019150610ab59050565b600101610a61565b5060009250829150505b9250929050565b606060008084519050606060018203604051908082528060200260200182016040528015610af4578160200160208202803883390190505b50905060005b85811015610b4257868181518110610b0e57fe5b6020026020010151828281518110610b2257fe5b600160a060020a0390921660209283029190910190910152600101610afa565b50600185015b82811015610b9357868181518110610b5c57fe5b6020026020010151826001830381518110610b7357fe5b600160a060020a0390921660209283029190910190910152600101610b48565b5080868681518110610ba157fe5b60200260200101519350935050509250929050565b828054828255906000526020600020908101928215610c18579160200282015b82811115610c18578251825473ffffffffffffffffffffffffffffffffffffffff1916600160a060020a03909116178255602090920191600190910190610bd6565b50610c24929150610c28565b5090565b61087f91905b80821115610c2457805473ffffffffffffffffffffffffffffffffffffffff19168155600101610c2e56fe57686974654c6973742e72656d6f7665416464726573733a2041646472657373206973206e6f742063757272656e742077686974656c69737465642e54696d654c6f636b557067726164653a2054696d65206c6f636b20706572696f64206d757374206861766520656c61707365642e54696d654c6f636b557067726164653a204e657720706572696f64206d7573742062652067726561746572207468616e206578697374696e6757686974654c6973742e616464416464726573733a20416464726573732068617320616c7265616479206265656e2077686974656c69737465642ea165627a7a723058200326a48767600d5e132646a14181f9fabf45098fa71c4bdf168d0ffc112240a90029",
  "source": "/*\n    Copyright 2018 Set Labs Inc.\n\n    Licensed under the Apache License, Version 2.0 (the \"License\");\n    you may not use this file except in compliance with the License.\n    You may obtain a copy of the License at\n\n    http://www.apache.org/licenses/LICENSE-2.0\n\n    Unless required by applicable law or agreed to in writing, software\n    distributed under the License is distributed on an \"AS IS\" BASIS,\n    WITHOUT WARRANTIES OR CONDITIONS OF ANY KIND, either express or implied.\n    See the License for the specific language governing permissions and\n    limitations under the License.\n*/\n\npragma solidity 0.5.7;\n\n\nimport { Ownable } from \"openzeppelin-solidity/contracts/ownership/Ownable.sol\";\n\nimport { TimeLockUpgrade } from \"./TimeLockUpgrade.sol\";\nimport { AddressArrayUtils } from \"./AddressArrayUtils.sol\";\n\n\n/**\n * @title Whitelist\n * @author Set Protocol\n *\n * Generic whitelist for addresses\n */\ncontract WhiteList is\n    Ownable,\n    TimeLockUpgrade\n{\n    using AddressArrayUtils for address[];\n\n    /* ============ State Variables ============ */\n\n    address[] public addresses;\n    mapping(address => bool) public whiteList;\n\n    /* ============ Events ============ */\n\n    event AddressAdded(\n        address _address\n    );\n\n    event AddressRemoved(\n        address _address\n    );\n\n    /* ============ Constructor ============ */\n\n    /**\n     * Constructor function for Whitelist\n     *\n     * Allow initial addresses to be passed in so a separate transaction is not required for each\n     *\n     * @param _initialAddresses    Starting set of addresses to whitelist\n     */\n    constructor(\n        address[] memory _initialAddresses\n    )\n        public\n    {\n        // Add each of initial addresses to state\n        for (uint256 i = 0; i < _initialAddresses.length; i++) {\n            address addressToAdd = _initialAddresses[i];\n\n            addresses.push(addressToAdd);\n            whiteList[addressToAdd] = true;\n        }\n    }\n\n    /* ============ External Functions ============ */\n\n    /**\n     * Add an address to the whitelist\n     *\n     * @param _address    Address to add to the whitelist\n     */\n    function addAddress(\n        address _address\n    )\n        external\n        onlyOwner\n        timeLockUpgrade\n    {\n        require(\n            !whiteList[_address],\n            \"WhiteList.addAddress: Address has already been whitelisted.\"\n        );\n\n        addresses.push(_address);\n\n        whiteList[_address] = true;\n\n        emit AddressAdded(\n            _address\n        );\n    }\n\n    /**\n     * Remove an address from the whitelist\n     *\n     * @param _address    Address to remove from the whitelist\n     */\n    function removeAddress(\n        address _address\n    )\n        external\n        onlyOwner\n    {\n        require(\n            whiteList[_address],\n            \"WhiteList.removeAddress: Address is not current whitelisted.\"\n        );\n\n        addresses = addresses.remove(_address);\n\n        whiteList[_address] = false;\n\n        emit AddressRemoved(\n            _address\n        );\n    }\n\n    /**\n     * Return array of all whitelisted addresses\n     *\n     * @return address[]      Array of addresses\n     */\n    function validAddresses()\n        external\n        view\n        returns (address[] memory)\n    {\n        return addresses;\n    }\n\n    /**\n     * Verifies an array of addresses against the whitelist\n     *\n     * @param  _addresses    Array of addresses to verify\n     * @return bool          Whether all addresses in the list are whitelsited\n     */\n    function areValidAddresses(\n        address[] calldata _addresses\n    )\n        external\n        view\n        returns (bool)\n    {\n        for (uint256 i = 0; i < _addresses.length; i++) {\n            if (!whiteList[_addresses[i]]) {\n                return false;\n            }\n        }\n\n        return true;\n    }\n}\n",
  "sourcePath": "/Users/brianweickmann/Documents/Source/set-protocol-contract-utils/contracts/lib/WhiteList.sol",
  "compiler": {
    "name": "solc",
    "version": "0.5.7+commit.6da8b019.Linux.g++"
  },
  "schemaVersion": "3.0.23",
  "updatedAt": "2020-04-15T22:23:26.918Z",
  "devdoc": {
    "author": "Set Protocol * Generic whitelist for addresses",
    "methods": {
      "addAddress(address)": {
        "params": {
          "_address": "Address to add to the whitelist"
        }
      },
      "areValidAddresses(address[])": {
        "params": {
          "_addresses": "Array of addresses to verify"
        },
        "return": "bool          Whether all addresses in the list are whitelsited"
      },
      "constructor": {
        "params": {
          "_initialAddresses": "Starting set of addresses to whitelist"
        }
      },
      "isOwner()": {
        "return": "true if `msg.sender` is the owner of the contract."
      },
      "owner()": {
        "return": "the address of the owner."
      },
      "removeAddress(address)": {
        "params": {
          "_address": "Address to remove from the whitelist"
        }
      },
      "renounceOwnership()": {
        "details": "Allows the current owner to relinquish control of the contract. It will not be possible to call the functions with the `onlyOwner` modifier anymore."
      },
      "setTimeLockPeriod(uint256)": {
        "params": {
          "_timeLockPeriod": "Time in seconds that upgrades need to be evaluated before execution"
        }
      },
      "transferOwnership(address)": {
        "details": "Allows the current owner to transfer control of the contract to a newOwner.",
        "params": {
          "newOwner": "The address to transfer ownership to."
        }
      },
      "validAddresses()": {
        "return": "address[]      Array of addresses"
      }
    },
    "title": "Whitelist"
  },
  "userdoc": {
    "methods": {
      "addAddress(address)": {
        "notice": "Add an address to the whitelist"
      },
      "areValidAddresses(address[])": {
        "notice": "Verifies an array of addresses against the whitelist"
      },
      "constructor": "Constructor function for Whitelist     * Allow initial addresses to be passed in so a separate transaction is not required for each",
      "removeAddress(address)": {
        "notice": "Remove an address from the whitelist"
      },
      "renounceOwnership()": {
        "notice": "Renouncing ownership will leave the contract without an owner, thereby removing any functionality that is only available to the owner."
      },
      "setTimeLockPeriod(uint256)": {
        "notice": "Change timeLockPeriod period. Generally called after initially settings have been set up."
      },
      "validAddresses()": {
        "notice": "Return array of all whitelisted addresses"
      }
    }
  }
}